:020000040800F2
:10000000B0190020F1010008B56500084159000849
:10001000B1650008710B0008997C00080000000021
:10002000000000000000000000000000A56E0008B5
:10003000750B000800000000076C0008A76E0008A0
:100040000B0200080B0200080B0200080B0200085C
:100050000B0200080B0200080B020008830B0008CB
:100060000B0200080B0200080B0200080B0200083C
:100070000B0200080B0200080B0200080B0200082C
:100080000B0200080B020008E50900080B0200083B
:100090000B0200080B0200080B0200080B0200080C
:1000A0000B0200080B0200080B0200080B020008FC
:1000B000316F00080B0200080B0200080B02000859
:1000C0000B0200080B0200080B0200080B020008DC
:1000D0000B0200080B0200080B0200080B020008CC
:1000E000770B00080B0200080B0200080B02000847
:1000F0000B0200080B0200080B0200080B020008AC
:100100000B0200080B0200080B0200080B0200089B
:100110000B0200080B0200080B0200080B0200088B
:100120000B0200080B0200080B0200080B0200087B
:100130000B0200080B0200080B0200080B0200086B
:100140000B0200080B0200080B0200080B0200085B
:100150000B0200080B0200080B0200080B0200084B
:100160000B0200080B0200080B0200080B0200083B
:100170000B0200080B0200080B0200080B0200082B
:100180000B0200080B0200080B0200080B0200081B
:100190000B020008000000000B0200080B02000820
:1001A0000B0200080B0200080B0200080B020008FB
:1001B0000B0200080B0200080B0200080B020008EB
:1001C0000B0200080B0200080B0200080B020008DB
:1001D0000B0200080B020008DFF810D000F040FB13
:1001E00000480047C9A10008AFF30080B019002003
:1001F0000648804706480047FEE7FEE7FEE7FEE7C1
:10020000FEE7FEE7FEE7FEE7FEE7FEE71D6F0008FC
:10021000D90100082DE9F05F0546002092469B4673
:1002200088460646814640241BE02846414647460C
:10023000224600F0D6F953465A46C01A914110D3CF
:1002400011461846224600F0BDF92D1A67EB010849
:100250004F4622460120002100F0B4F917EB0009B7
:100260004E41201EA4F10104DFDC484631462A46F7
:100270004346BDE8F09F40EA01039B0703D009E035
:1002800008C9121F08C0042AFAD203E011F8013B82
:1002900000F8013B521EF9D27047D2B201E000F8DB
:1002A000012B491EFBD270470022F6E710B513461A
:1002B0000A4604461946FFF7F0FF204610BD2DE917
:1002C000FE4F804681EA0300C00F0C46009021F0EB
:1002D000004123F00045B8EB0200A94105D2404699
:1002E000214690461C460B46024623F00040104330
:1002F00047D0270DC7F30A00C3F30A510290401AF2
:10030000019040286BDAC3F3130040F4801B00987F
:10031000924620B10023D2EB030A63EB0B0B01984A
:100320005946C0F14002504600F04CF906460D46D1
:1003300050465946019A00F064F910EB08006141FB
:10034000002487EA115284EAE7731A4340D0009AE6
:1003500062B3019A012A4FEA075215DC001B61EBD8
:1003600002014FF0004202EA0752CDE90042001CB0
:1003700041F5801132462B4600F0C4F903B0BDE8C8
:10038000F08F40462146F9E7001B61EB0201001C9B
:1003900041F5801300185B412018A2F5001747EBC8
:1003A000030140EAD570B6196D4111E06D084FEABE
:1003B000360645EAC0754FEA0752001B61EB0201A1
:1003C000001C41F5801149084FEA300000195141E5
:1003D00032462B4603B0BDE8F04F00F084B90098D8
:1003E000012240000023D0EB020263EBE07300988F
:1003F00021464FEAE074B8EB000061EB0401E9E745
:1004000083F000435BE781F0004158E72DE9FE4FA0
:1004100081EA030404F0004421F0004100944FF00D
:10042000000B23F0004350EA01045ED052EA0304BB
:100430005BD0C3F30A54C1F30A552C44A4F2F3343D
:100440000194A0FB0254C1F3130141F48011C3F3E2
:10045000130343F4801301FB024400FB034E840AA0
:10046000970A44EA815447EA8357A4FB0768029538
:100470008D0A05FB07854FEA932C04FB0C542705D6
:10048000029D4FEA065847EA1637B5EB08056EEBB2
:10049000070C870E920E47EA811742EA8312A7FBE8
:1004A0000201B6EB0B0164EB00042B0D43EA0C33A5
:1004B0005E1844EB1C50DA465146E7FB0201C5F3D7
:1004C00013044FEA0B3343EA14534FEA0432019CFE
:1004D00043EA0603A4F10C040294009CCDE900B4A5
:1004E00000F010F903B0BDE8F08F00200146F9E7F5
:1004F0000EB540F2334102910021CDE900110A46C8
:100500000B4600F0FFF803B000BDC1F30A5210B56E
:10051000C1F3130140F2FF3341F480119A4201DA32
:10052000002010BD40F233439A42A2F2334203DC72
:10053000524200F056F810BD904010BD00F000424D
:1005400030F000400AD0C10D01F56071C0F3160013
:1005500042EA0151C208400711437047002001469A
:100560007047000030B5041E71F1000404DB4FF049
:100570000044404264EB0101141E73F1000405DBEA
:100580001C464FF00043524263EB04038B4208BF0A
:10059000824230BD30B5041E71F1000404DB4FF01F
:1005A0000044404264EB0101141E73F1000405DBBA
:1005B0001C464FF00043524263EB0403994208BFCC
:1005C000904230BD202A04DB203A00FA02F10020DC
:1005D00070479140C2F1200320FA03F31943904081
:1005E0007047202A04DB203A21FA02F000217047EC
:1005F00021FA02F3D040C2F120029140084319468B
:100600007047202A06DBCB17203A41FA02F043EA72
:10061000E07306E041FA02F3D040C2F120029140BB
:100620000843194670470029A8BF7047401C49007D
:1006300008BF20F00100704710B4B0FA80FC00FA47
:100640000CF050EA010404BF10BC704749B1CCF172
:10065000200421FA04F411FA0CF118BF01212143FE
:100660000843A3EB0C01CB1D4FEA00614FEA1020B9
:1006700042BF002010BC704700EBC350104400295B
:10068000A4BF10BC7047401C490008BF20F0010007
:1006900010BC7047F0B400F0004221F0004120F09F
:1006A0000040CE0DC30DC1F3160141F40001C0F3AB
:1006B00016004C42154640F40000761E09E010EB8F
:1006C000440002D582F0004240428842F7D8400000
:1006D0005B1EB342F9DA18B1F0BC0021FFF7ACBFE2
:1006E0002846F0BC704710B5141E73F1000408DAF8
:1006F000401C41F1000192185B411A4301D120F0E6
:10070000010010BD2DE9F04D92469B4611B1B1FAA2
:1007100081F202E0B0FA80F220329046FFF752FFF9
:1007200004460F4640EA0A0041EA0B0153465A4686
:10073000084313D0114653EA010019D0C8F1400212
:100740005046FFF74EFF05460E4650465946424674
:10075000FFF738FF084305D0012004E02046394662
:10076000BDE8F08D0020054346EAE0762C43374390
:100770000A986305E40AA0EB08000022FD0A44EA97
:1007800047540A3002D500200146E9E70105101957
:100790006941DDE9084500196941BDE8F04DA2E76E
:1007A0002DE9F041054621F000400C46284309D0D0
:1007B000C4F30A5040F23341884205DD2846214601
:1007C000BDE8F0812846FBE740F2FE31884210DCAC
:1007D0000CDB4FEA043040EA155050EA053105D0F1
:1007E000104804F0004101430020E9E700200146E1
:1007F000E6E7A0F233404642C6F1400228462146D1
:10080000FFF7E0FE07468846284621463246FFF7B6
:10081000E8FE43463A46FFF766FF3246BDE8F04140
:10082000FFF7D0BE0000F03F002801DBC0F1004020
:10083000002901DBC1F10041814202D24FF00040AA
:1008400004E04FF0005001D14FF0C0404FEA206269
:10085000EFF3008162F31F6181F3008870470000AD
:10086000064C074D06E0E06840F0010394E80700FD
:1008700098471034AC42F6D3FFF7B2FCB4CA000874
:10088000D4CA00089FED221A9FED222A20EE010A09
:10089000B5EE001A30EE010ABDEEC01A11EE100AD4
:1008A000B5EE400AF1EE10FAB8BF013801EE100AB9
:1008B000B8EEC11A30EE410A20EE020ABDEEC01AAF
:1008C0009FED152A11EE100A002130EE021AB1EB4D
:1008D000502F4CF2B0211CBF0020B0EE410AC0F6F0
:1008E000000101EE100A01EB8001B8EE411A30EE72
:1008F000410A91ED001A91ED012AB7EE003A33EE6C
:10090000403A23EE011A20EE020A31EE000A704747
:1009100083F9223E00000044000000C490ED082A44
:1009200090ED060A90ED071A32EE023A30EE011A07
:1009300030EE030A31EE021AB1EE400A80ED001AE1
:1009400080ED010A80ED022A19B10021C0E90311EE
:10095000416170479FED201A9FED202A20EE010A89
:10096000BDEEC01A11EE100AB5EE400AF1EE10FA13
:10097000B8BF013801EE100AB8EEC11A30EE410AD4
:1009800020EE020ABDEEC01A9FED152A11EE100AE4
:10099000002130EE021AB1EB502F4CF2B0211CBFF7
:1009A0000020B0EE410AC0F6000101EE100A01EB92
:1009B0008001B8EE411A30EE410A91ED001A91ED36
:1009C000012AB7EE003A33EE403A23EE011A20EE48
:1009D000020A31EE000A704783F9223E000000440B
:1009E000000000C410B5034801F000FB024801F00C
:1009F000FDFA10BDD40000204001002070B504466F
:100A0000206805F091F90646206805F092F998B340
:100A100096BB2068806800F00D0001280AD120688C
:100A200081681A4A1140891C816000BF0320216837
:100A3000086009E0E06D40F01000E065206E40F0D5
:100A400001002066012070BD02F0F8F9054614E0AF
:100A500002F0F4F9401B02280FD92068806800F0EA
:100A6000010050B1E06D40F01000E065206E40F0F4
:100A7000010020660120E6E705E02068806800F0BC
:100A800001000028E4D10020DDE70000C0FFFF7F67
:100A900038B5044600200090206805F04AF9002887
:100AA00058D1206880682C49084048B1E06D40F07A
:100AB0001000E065206E40F001002066012038BD86
:100AC000206805F0E9F82168B1F1A04F03D0234A6E
:100AD0002168914201D1224900E02249084605F0EF
:100AE000E3F800F4000080B11F4800681F49B0FB24
:100AF000F1F0401C00EB40008000009002E0009804
:100B0000401E009000980028F9D102F097F90546A0
:100B10001AE0206805F00DF910B9206805F0BCF85E
:100B200002F08CF9401B02280ED92068006800F002
:100B3000010048B9E06D40F01000E065206E40F023
:100B4000010020660120BAE72068006800F001007B
:100B50000028DED00020B2E73F00008000010050F6
:100B6000000300500007005010000020400D03005B
:100B700000BFFEE7704710B54FF4006002F054F874
:100B800010BD10B5022002F04FF810BD72B600BFC4
:100B9000FEE70000F8B504460D460020009000BFB7
:100BA00094F85800012801D10220F8BD012084F8F2
:100BB000580000BF2046FFF721FF06468EBBE06DC0
:100BC00020F4885040F00200E065206881681B4AEC
:100BD000114005F0804242F000421143816000BFA5
:100BE00013E00098401C00901549009888420CD3EF
:100BF000E06D20F0020040F01000E06500BF002032
:100C000084F8580000BF0120CFE720688168C90F31
:100C10000029E6D1E06D20F0020040F00100E0651F
:100C200004E0FFE7E06D40F01000E06500BF002049
:100C300084F8580000BF3046B7E70000C0FFFF3F10
:100C400002DE0400704700002DE9FC5F05460C46FB
:100C50000020019000900027686900B100BFFE49A4
:100C6000E068884200D000E000BF00BF95F858005F
:100C7000012802D10220BDE8FC9F012085F8580020
:100C800000BF686910B1206A01281ED16068092878
:100C90004ED1A06A60B194F8280000F07C00216871
:100CA000C1F3846140EA4120E16A40EA010703E0C0
:100CB0002068C0F3846047022868C06CE749084098
:100CC00038432968C8646F6632E0A86E90B9216A1B
:100CD000A96600206866A06A50B1206A401E94F898
:100CE000281001F07C010843E16A40EA010701E0B5
:100CF000206A471E207900F01F01002088408743AA
:100D00002068C0F38460217901F01F018840074307
:100D1000A86E401EA866686E38436866A86E38B92B
:100D20002868C06CCD490840696E08432968C864CA
:100D3000286804F0E9FFD8B994F8250070B994F850
:100D40002600400594F8241040EA01502968C9683B
:100D500021F4401108432968C86009E02868C06888
:100D600020F4401094F8261040EA41502968C860E9
:100D7000286804F0F2FF8246286804F0C5FF814627
:100D8000BAF1000F7ED1B9F1000FFBD1A06A08B112
:100D9000E06A88B994F82500012806D12868C0685F
:100DA00040F000702968C86017E02868C06820F02B
:100DB00000702968C86010E094F82500012806D169
:100DC000E86D40F02000E8650120019005E028680A
:100DD000C06820F000702968C86094F830000128CD
:100DE0000CD1606B40F00200A16B084329680969CF
:100DF00021F4FF7108432968086105E0286800694B
:100E000020F0020029680861A068B0F1004F0AD103
:100E100021680022286804F0C2FF4FF000412868D2
:100E200004F0F9FF08E0A2682168286804F0B7FF21
:100E30000021286804F0EFFF60692968C968C1F3E0
:100E4000C101490000FA01F82069042840D028684F
:100E50002268216900F1600C0CEB8103D3F800C01B
:100E6000DFF8FCB10CEA0B0C02F0F84B4BF0004B36
:100E70004BEA080B4CEA0B0CC3F800C000BF286813
:100E8000A26900E0CCE0216900F1600C0CEB810369
:100E9000D3F800C02CF0807C4CEA020CC3F800C0F0
:100EA00000BF2868227F2169012A01D1520600E093
:100EB0000022134600F1600C0CEB8102D2F800C056
:100EC0002CF0007C4CEA030CC2F800C000BFA7E085
:100ED0000021286804F005FFC0F3120030B900219A
:100EE000286804F0FEFEC0F3846007E00021286853
:100EF00004F0F7FE90FAA0F0B0FA80F02168C1F398
:100F0000120119B92168C1F3846104E0216891FAE2
:100F1000A1F1B1FA81F1884204D10022114628687A
:100F200004F068FF0121286804F0DBFEC0F3120022
:100F300030B90121286804F0D4FEC0F3846007E0D2
:100F40000121286804F0CDFE90FAA0F0B0FA80F0FC
:100F50002168C1F3120119B92168C1F3846104E069
:100F6000216891FAA1F1B1FA81F1884204D10022FD
:100F70000121286804F03EFF0221286804F0B1FE38
:100F8000C0F3120030B90221286804F0AAFEC0F3B1
:100F9000846007E00221286804F0A3FE90FAA0F024
:100FA000B0FA80F02168C1F3120119B92168C1F3C8
:100FB000846104E0216891FAA1F1B1FA81F18842DB
:100FC00004D100220221286804F014FF03212868BC
:100FD00004F087FEC0F3120030B90321286804F042
:100FE00080FEC0F3846007E00321286804F079FEE6
:100FF00090FAA0F0B0FA80F02168C1F3120119B99B
:101000002168C1F3846104E0216891FAA1F1B1FA89
:1010100081F1884204D100220321286804F0EAFE0D
:10102000286804F08BFE002873D12868E2682168E4
:10103000D0F8B030C1F3120C23EA0C0302F0180B05
:10104000DFF820C02CFA0BFC0CEA010C43EA0C037D
:10105000C0F8B03000BF07E000007F40004010043F
:1010600000F0FF03FFFF07009249E068884250D17B
:101070002368C3F312031BB92368C3F3846304E03A
:10108000236893FAA3F3B3FA83F35B1C03F01F0303
:10109000092B3FD82368C3F312031BB92368C3F39A
:1010A000846304E0236893FAA3F3B3FA83F35B1C2D
:1010B00003F01F034FF0010C0CFA03FC2368C3F389
:1010C00012031BB92368C3F3846304E0236893FA13
:1010D000A3F3B3FA83F35B1C03F01F034CEA836CA6
:1010E0002368C3F312031BB92368C3F3846304E0CA
:1010F000236893FAA3F3B3FA83F35B1C03F01F0393
:1011000003EB43034FF0000B4BEA03534CEA03039A
:101110003FE043E02368C3F312031BB92368C3F322
:10112000846304E0236893FAA3F3B3FA83F35B1CAC
:1011300003F01F034FF0010C0CFA03FC2368C3F308
:1011400012031BB92368C3F3846304E0236893FA92
:10115000A3F3B3FA83F35B1C03F01F034CEA836C25
:101160002368C3F312031BB92368C3F3846304E049
:10117000236893FAA3F3B3FA83F35B1C03F01F0312
:101180000A3B03EB43034FF0007B4BEA03534CEA6B
:1011900003031946A268286804F001FE4649206846
:1011A000084000287FD02968B1F1A04F03D0434AFE
:1011B0002968914201D1424900E0424908468168CC
:1011C00001F0E07600BF40492068884203D03F49E3
:1011D000206888422CD106F4000048BB2868B0F192
:1011E000A04F03D03A49286888425CD12A68B2F1FE
:1011F000A04F03D0314B2A689A4201D1304A00E017
:10120000304A104646F4000104F0E3FD314800681E
:101210003149B0FBF1F0801C00EB400080000090F1
:1012200002E00098401E009000980028F9D13AE0B2
:101230002A49206888421BD106F08070C0B91F4936
:10124000286888422FD02649286888422BD02A68EF
:10125000B2F1A04F03D0194B2A689A4201D1184A23
:1012600000E0184A104646F0807104F0B2FD1AE022
:101270001C492068884216D106F4800098B90F49AD
:10128000286888420FD02A68B2F1A04F03D00B46DD
:101290002A689A4201D10A4A00E00A4A104646F4F6
:1012A000800104F096FD00BF002085F8580000BFC3
:1012B0000198E0E400007F40000008800001005039
:1012C0000003005000070050000021C31000C09030
:1012D0000006005010000020400D0300000052C71F
:1012E00000050050000084CB10B52DED088B84B0B4
:1012F00004462068B0F1A04F7ED10921DD4800F0FE
:10130000F3F900EE100AB8EE400ADFEDDB0A80EEDA
:10131000201AB6EE000A31EE400ADFEDD80A20EEC0
:10132000200AB0EE409A40F20F11D24800F0DCF9EA
:1013300000EE100AB8EE400ADFEDCF0A80EE201A68
:10134000B6EE000A31EE400ADFEDCC0A20EE200AAC
:10135000F0EE409ADFEDCA0A89EE200ADFEDC90AF5
:1013600080EE201AB0EE41AADFEDC50A89EEA00A90
:10137000DFEDC40A80EE201AF0EE41AAC24880EDEB
:1013800000AAC248C0ED00AA9FEDC10A8DED030A74
:101390009FEDBF0A8DED020ABB4890ED000ABB48E5
:1013A000D0ED000A8DED030A9FEDBA1A20EE011A66
:1013B000DFEDB91A01EEA01A8DED021A00BF9FED04
:1013C000B40A8DED010A9FEDB20A8DED000AB34813
:1013D000D0ED000AB24890ED001A70EEC10AB0EEEE
:1013E000600A09F0E9FEF1EE0C0A20EE200AF0EEA8
:1013F00040BA09F0E1FE00E058E0B0EE40BAFFF775
:10140000A9FAB0EE408AA548D0ED000AA44890EDB4
:10141000001A70EEC10AB0EE600A09F0CDFEF1EEDE
:101420000C0A20EE200AF0EE40BA09F0C5FEB0EE3C
:1014300040BAFFF727FAF0EE408A9DED030ADDED92
:10144000020AB0EE481AF0EE681A20EE212A00EEE9
:10145000812A8DED012AB1EE402A22EE012A00EE0A
:10146000A12A8DED002A00BF8E4890ED001A8E480B
:10147000D0ED000A9DED010A08F008FB8A4880EDD6
:10148000000A8A4890ED001A8948D0ED000A9DEDC7
:10149000000A08F0FBFA864880ED000A8548D0ED86
:1014A000000A9FED7B0A08F095FB00BF8249206887
:1014B00088427DD140F20F11804800F015F9804933
:1014C000086009217D4800F00FF900EE100AF8EEDF
:1014D000400A9FED691A80EE810AF6EE000A30EEAE
:1014E000600ADFED660A20EE200AB0EE409A7448EA
:1014F00090ED000AB8EE400A9FED5F1AC0EE010AB7
:10150000B6EE000A30EEC00ADFED5C0A20EE200ADB
:10151000F0EE409ADFED5A0A89EE200ADFED590A13
:1015200080EE201AB0EE41AADFED550A89EEA00A3E
:10153000DFED540A80EE201AF0EE41AA614880EDFA
:1015400000AA6148C0ED00AA9FED510A8DED030A83
:101550009FED4F0A8DED020A5A4890ED000A5A4855
:10156000D0ED000A8DED030A9FED4A1A20EE011A14
:10157000DFED491A01EEA01A8DED021A00BF9FEDB2
:10158000440A8DED010A9FED420A8DED000A4F4895
:10159000D0ED000A4E4890ED001A70EEC10AB0EE90
:1015A000600A09F009FEF1EE0C0A20EE200A00E0C4
:1015B0005CE0F0EE40BA09F0FFFDB0EE40BAFFF794
:1015C000C9F9B0EE408A4148D0ED000A404890ED9C
:1015D000001A70EEC10AB0EE600A09F0EDFDF1EEFE
:1015E0000C0A20EE200AF0EE40BA09F0E5FDB0EE5C
:1015F00040BAFFF747F9F0EE408A9DED030ADDEDB2
:10160000020AB0EE481AF0EE681A20EE212A00EE27
:10161000812A8DED012AB1EE402A22EE012A00EE48
:10162000A12A8DED002A00BF2A4890ED001A2A4811
:10163000D0ED000A9DED010A08F028FA264880ED59
:10164000000A264890ED001A2548D0ED000A9DEDCD
:10165000000A08F01BFA224880ED000A2148D0ED6C
:10166000000A9FED0B0A08F081FC00BF04B0BDEC3E
:10167000088B10BDD400002000F07F453333534069
:101680000AD7A33C0000484260000020640000200C
:10169000000000003ACD133F3ACD933F7800002080
:1016A0007C000020B000002068000020B400002072
:1016B0006C000020A000002000010050400100202C
:1016C000A800002080000020840000209800002056
:1016D0009C000020B800002088000020BC000020F2
:1016E0008C000020A40000200246092915D0A1F298
:1016F0000F136BB1B3F5837F06D0B3F5037F0BD126
:101700001368D3F88C000CE01368D3F8880008E065
:101710001368D3F8840004E000BF1368D3F8800096
:1017200000BF00BF704770472DE9F04104462168B3
:10173000B1F1A04F03D05B4A2168914201D15A49CF
:1017400000E05A49084604F0BEFA0546206804F055
:10175000DBFA10B10220BDE8F0812068C06800F01B
:1017600000472068C06C00F4C07030B92FB9E06D3C
:1017700040F02000E0650120EDE700BF94F858003C
:10178000012801D10220E6E7012084F8580000BFBB
:101790002046FFF77DF90646002E7CD1E06D00F46F
:1017A000807020B1206E20F00800206601E000204B
:1017B0002066E06D42F20101884340F48050E0650C
:1017C00038492068884202D14FF0A04006E03849ED
:1017D0002068884201D1374800E0206821688842AB
:1017E00000D01DB9E06D20F48010E0656020216814
:1017F000086000BF002084F8580000BF2068C0685F
:1018000000F4001028B12068406840F4806021682E
:101810004860A06908280CD12068406820F02000AA
:10182000216848602068406840F0400021684860B6
:101830000CE02068406820F0400021684860206883
:10184000406840F020002168486000BF00BF154993
:101850002068884202D14FF0A04006E01449206879
:10186000884201D1134800E020682168884204D0F2
:101870001DB1062D01D0072D08D1206804F03AFAD9
:1018800070B9206804F046FA0AE004E0E06D40F424
:101890008010E06504E000BF002084F8580000BF1D
:1018A000304658E700010050000300500007005088
:1018B0000005005000040050704770472DE9F043C8
:1018C0009BB004460E464FF00008306800B100BFE0
:1018D00000BF94F85800012803D102201BB0BDE8D6
:1018E000F083012084F8580000BF00201790189062
:1018F0002068B0F1A04F02D15848009008E0584944
:101900002068884202D15748009001E000200090F2
:10191000009850B9E06D40F02000E06500BF002065
:1019200084F8580000BF0120D8E7009804F015FAA9
:101930000746206804F011FA00287DD1002F7FD1DE
:101940002068B0F1A04F03D044492068884201D1FB
:10195000454800E0454805463068D8B394F838005B
:10196000716841EA4030A96821F460410843A860E9
:101970002068B0F1A04F03D038492068884201D1D7
:10198000394800E03948384988420AD14FF0A04030
:1019900004F0D4F98146314804F0D0F949EA000056
:1019A0000DE02F4804F0CAF981462E4804F0C6F92C
:1019B00049EA00092E4804F0C1F949EA0000E0BBF9
:1019C000B16830680843A96840F61F729143084324
:1019D000A8603BE0FFE7A86820F46040A8602068AA
:1019E000B0F1A04F03D01D492068884201D11E48A4
:1019F00000E01E481C4988420AD14FF0A04004F084
:101A00009DF98146154804F099F949EA00000DE076
:101A1000134804F093F98146124804F08FF949EA1B
:101A20000009134804F08AF949EA000028B9A868B7
:101A300040F61F71884301E002E007E0A86005E07E
:101A4000E06D40F02000E0654FF0010800BF00208D
:101A500084F8580000BF404640E7000000010050F5
:101A60000004005000050050000300500007005023
:101A7000000600502DE9F84F05460C464FF0000ACD
:101A800000200090FE49E068884200D000E000BFDE
:101A900000BF95F85800012802D10220BDE8F88F58
:101AA000012085F8580000BF286804F051F900288B
:101AB0007DD12968D4E9002001F1300CC0F3012B5D
:101AC0000CEB8B03D3F800C000F01F0E4FF01F0B80
:101AD0000BFA0EFB2CEA0B0C00F01F0BC2F3846E0A
:101AE0000EFA0BFE4CEA0E0CC3F800C000BF2868CB
:101AF00004F02EF98146286804F001F98046B9F116
:101B0000000F64D1B8F1000FFBD1A068B0F1004F15
:101B10000AD121680022286804F02DF94FF0004115
:101B2000286804F072F908E0A2682168286804F0C7
:101B300022F90021286804F068F960692968C968F9
:101B4000C1F3C101490000FA01F7206904283FD020
:101B500028682268216900F1600C0CEB8103D3F83E
:101B600000C0DFF820B30CEA0B0C02F0F84B4BF08E
:101B7000004B4BEA070B4CEA0B0CC3F800C000BF4C
:101B80002868A269216900F1600C0CEB8103D3F88D
:101B900000C02CF0807C4CEA020CC3F800C000BFEF
:101BA0002868227F2169012A02D1520601E0F6E16C
:101BB0000022134600F1600C0CEB8102D2F800C049
:101BC0002CF0007C4CEA030CC2F800C000BFA7E078
:101BD0000021286804F07CF8C0F3120030B900211D
:101BE000286804F075F8C0F3846007E000212868D5
:101BF00004F06EF890FAA0F0B0FA80F02168C1F31A
:101C0000120119B92168C1F3846104E0216891FAD5
:101C1000A1F1B1FA81F1884204D10022114628686D
:101C200004F0DDF80121286804F052F8C0F3120036
:101C300030B90121286804F04BF8C0F3846007E054
:101C40000121286804F044F890FAA0F0B0FA80F07E
:101C50002168C1F3120119B92168C1F3846104E05C
:101C6000216891FAA1F1B1FA81F1884204D10022F0
:101C70000121286804F0B3F80221286804F028F84C
:101C8000C0F3120030B90221286804F021F8C0F333
:101C9000846007E00221286804F01AF890FAA0F0A6
:101CA000B0FA80F02168C1F3120119B92168C1F3BB
:101CB000846104E0216891FAA1F1B1FA81F18842CE
:101CC00004D100220221286804F089F80321286841
:101CD00003F0FEFFC0F3120030B90321286803F0BF
:101CE000F7FFC0F3846007E00321286803F0F0FFEA
:101CF00090FAA0F0B0FA80F02168C1F3120119B98E
:101D00002168C1F3846104E0216891FAA1F1B1FA7C
:101D100081F1884204D100220321286804F05FF891
:101D2000286804F006F8002870D12868E268216865
:101D3000D0F8B0C0C1F312032CEA030C02F0180B68
:101D4000514B23FA0BF30B404CEA030CC0F8B0C024
:101D500000BF4B49E068884258D12368C3F312039F
:101D60001BB92368C3F3846304E0236893FAA3F3E5
:101D7000B3FA83F35B1C03F01F03092B3ED82368DF
:101D8000C3F312031BB92368C3F3846304E023681D
:101D900093FAA3F3B3FA83F35B1C03F01F034FF032
:101DA000010C0CFA03FC2368C3F312031BB923686C
:101DB000C3F3846304E0236893FAA3F3B3FA83F3D1
:101DC0005B1C03F01F034CEA836C2368C3F312030C
:101DD0001BB92368C3F3846304E0236893FAA3F375
:101DE000B3FA83F35B1C03F01F0303EB43034FF0D1
:101DF000000B4BEA03534CEA03033FE02368C3F3B1
:101E0000120323B92368C3F3846305E042E0236827
:101E100093FAA3F3B3FA83F35B1C03F01F034FF0B1
:101E2000010C0CFA03FC2368C3F312031BB92368EB
:101E3000C3F3846304E0236893FAA3F3B3FA83F350
:101E40005B1C03F01F034CEA836C2368C3F312038B
:101E50001BB92368C3F3846304E0236893FAA3F3F4
:101E6000B3FA83F35B1C03F01F030A3B03EB43034A
:101E70004FF0007B4BEA03534CEA0303194605E09D
:101E800000007F4000F0FF03FFFF0700A268286802
:101E900003F071FF484920680840002842D02968B3
:101EA000B1F1A04F03D0454A2968914201D144497C
:101EB00000E04449084603F0F7FE06464249206820
:101EC000884203D04149206888422CD106F40000A2
:101ED00048BB2868B0F1A04F03D03D49286888422C
:101EE00063D12A68B2F1A04F03D0344B2A689A42DA
:101EF00001D1334A00E0334A104646F4000103F0B2
:101F000062FF344800683449B0FBF1F0401C00EB3C
:101F100040008000009002E00098401E0090009871
:101F20000028F9D141E02D49206888421BD106F0F4
:101F30008070C0B921492868884236D0284928686D
:101F4000884232D02A68B2F1A04F03D01B4B2A68D6
:101F50009A4201D11A4A00E01A4A104646F08071AE
:101F600003F031FF21E01F49206888421DD106F4AB
:101F70008000D0B911492868884216D02A68B2F189
:101F8000A04F03D00B462A689A4201D10C4A00E0C8
:101F90000C4A104646F4800103F015FF05E0E86D99
:101FA00040F02000E8654FF0010A00BF002085F8EE
:101FB000580000BF504671E5000008800001005045
:101FC0000003005000070050000021C31000C09023
:101FD0000006005010000020400D0300000052C712
:101FE00000050050000084CB704770472DE9F84F82
:101FF0000446002000902068056820684668216833
:10200000B1F1A04F03D0DA4A2168914201D1D949F8
:1020100000E0D949084603F051FE074605F00200EA
:10202000022811D106F0020002280DD1E06D00F067
:10203000100018B9E06D40F40060E0652046FEF73E
:1020400001FE02202168086005F00400042803D185
:1020500006F00400042807D005F0080008286BD11A
:1020600006F00800082867D1E06D00F0100018B9EC
:10207000E06D40F40070E065206803F073FE002816
:1020800054D0BB492068884202D14FF0A04006E0FE
:10209000BA492068884201D1B94800E02068216827
:1020A000884204D01FB1052F01D0092F03D1206829
:1020B000D0F80C8010E0AE492068884202D14FF081
:1020C000A04006E0AD492068884201D1AC4800E05C
:1020D00020688346DBF80C8008F40050B0F5005F00
:1020E00024D02068006800F0080008281ED120686D
:1020F00003F02EFE90B92068406820F00C002168A3
:102100004860E06D20F48070E065E06D00F4805080
:1021100018B9E06D40F00100E06507E0E06D40F0C7
:102120001000E065206E40F0010020662046FFF7B9
:102130005BFF0C202168086005F02000202803D1F7
:1021400006F02000202807D005F0400040287FD16D
:1021500006F0400040287BD1E06D00F0100018B977
:10216000E06D40F40050E0652068C16C01F4C0717E
:1021700009B9012100E000218A4600BF206803F070
:10218000F1FD81467A492068884202D14FF0A04093
:1021900006E07A492068884201D1794800E0206849
:1021A0002168884204D01FB1062F01D0072F03D128
:1021B0002068D0F80C8010E06D492068884202D178
:1021C0004FF0A04006E06D492068884201D16C487C
:1021D00000E020688346DBF80C80BAF1000F31D0B4
:1021E00008F0007028B1B9F1000F2BD008F40050AE
:1021F00040BB2068006800F04000402822D108F46D
:102200000010F8B9206803F07AFD98B9206840689A
:1022100020F0600021684860E06D20F48050E065A7
:10222000E06D00F4807068B9E06D40F00100E06599
:1022300008E00DE0E06D40F01000E065206E40F039
:10224000010020662046FFF74FF8602021680860F3
:1022500005F0800080280DD106F08000802809D18B
:10226000E06D40F48030E065204600F0E7F9802022
:102270002168086005F48070B0F5807F0FD106F406
:102280008070B0F5807F0AD1E06D40F40030E065E9
:102290002046FFF711FB4FF480702168086005F4B9
:1022A0000070B0F5007F0FD106F40070B0F5007F2C
:1022B0000AD1E06D40F48020E0652046FFF7FDFA8A
:1022C0004FF400702168086005F01000102833D129
:1022D00006F0100010282FD1E06B10B901200090FB
:1022E00019E08FB12168B1F1A04F03D0204A2168D5
:1022F000914201D11F4900E01F49084603F0D9FC73
:1023000048B10120009006E02068C06800F001009C
:1023100008B101200090009801280AD1E06D40F436
:102320008060E065206E40F0020020662046FFF7E6
:102330005CFE10202168086005F48060B0F5806FB5
:1023400013D106F48060B0F5806F0ED1E06D40F4DB
:102350008040E065206E40F0080020664FF4806009
:10236000216808602046FFF7DEF9BDE8F88F00001D
:10237000000100500003005000070050000500500D
:10238000000400502DE9F84304464FF000080020F7
:10239000009014B90120BDE8F883606920B194F879
:1023A0002400012800D100BFE06D30B9204600F0C4
:1023B00047F90020206684F8580020688168C1F33E
:1023C000407131B120688168914A1140816000BF3D
:1023D00000BF206803F0B7FCB0B9206881688D4A5F
:1023E000114041F08051816000BF8B4800688B49EB
:1023F000B0FBF1F0401C4000009002E00098401E4D
:10240000009000980028F9D1206803F09CFC48B99E
:10241000E06D40F01000E065206E40F001002066A5
:102420004FF00108206803F093FC0646E06D00F0D1
:10243000100000287ED1002EFCD1E06D20F48070C9
:1024400040F00200E065206803F073FC88BB206860
:10245000B0F1A04F03D072492068884201D1714881
:1024600000E071486F4988420AD14FF0A04003F064
:1024700060FC81466A4803F05CFC49EA00000DE01C
:102480006A4803F056FC8146694803F052FC49EA69
:102490000009684803F04DFC49EA000048B9226889
:1024A000B2F1A04F03D05E4B22689A4202D15D4A3E
:1024B00001E009E05C4A10466168826822F47C12FF
:1024C0000A43826000BF00BF607FE16B41EA403099
:1024D000E1680843A168084394F8241040EA0145E4
:1024E00094F82400012803D1208D401E45EA404580
:1024F000E06A28B1A08D00F47870216B0843054391
:102500002068C0684C49084028432168C86020689A
:10251000006920F04060616B084321680861206811
:1025200003F0EDFB0746EEBBE7BB207F002141EA4D
:10253000803100E064E094F8380041EA400520680A
:10254000C06844F20201884328432168C8602069BA
:1025500080B12068006940F48030216808612068FB
:10256000D0F8C0006FF30D00216908432168C1F85D
:10257000C0000DE02068006920F480302168086107
:102580002068D0F8C0006FF30D002168C1F8C000CA
:1025900094F84000012813D1606C40F00101A06C58
:1025A000084300E012E0E16C0843216D0843216814
:1025B000096940F2FC72914308432168086105E013
:1025C0002068006920F00100216808616069012825
:1025D00009D12068006B20F00F00216A491E0843D2
:1025E0002168086305E02068006B20F00F00216877
:1025F0000863E06D20F0020040F00100E06505E0B6
:10260000E06D40F01000E0654FF001084046C2E682
:10261000C0FFFF5FC0FFFF7F10000020400D0300E0
:10262000000100500003005000070050000400505B
:1026300000050050000600500740F0FF7047000002
:1026400010B59CB00446142117A8FDF72DFE5421A7
:1026500002A8FDF729FE2068B0F1A04F42D14FF447
:10266000004002908003139002A801F07BF808B1AB
:10267000FEF78CFA4B480068401C4A49086008463F
:10268000006801280DD100BF4748C06C40F40050DD
:102690004549C8640846C06C00F40050019000BF72
:1026A00000BF00BF4048C06C40F001003E49C86414
:1026B0000846C06C00F00100019000BF00BF03207D
:1026C000179018900020199017A94FF0904000F033
:1026D000B9FA00221146122000F05CFF122000F02F
:1026E00045FF5CE031492068884258D1C001029022
:1026F0008003139002A801F035F808B1FEF746FAFE
:1027000028480068401C27490860084600680128DE
:102710000DD100BF2448C06C40F400502249C86469
:102720000846C06C00F40050019000BF00BF00BF1D
:102730001D48C06C40F001001B49C8640846C06CCD
:1027400000F00100019000BF00BF00BF0846C06C50
:1027500040F00200C8640846C06C00F0020001901E
:1027600000BF00BF20201790032018900020199070
:1027700017A94FF0904000F065FA0420179003204D
:1027800018900020199017A9094800F05BFA002260
:102790001146122000F0FEFE122000F0E7FE1CB0F1
:1027A00010BD000000000020001002400001005099
:1027B0000004004870B5044600F040FB064625467C
:1027C000681C10B104480068054400BF00F036FBE7
:1027D000801BA842FAD370BD0C00002010B52DED6F
:1027E000068B0446B4F5006F7ED1F04BF04AF149F8
:1027F000032005F0FFFDEE48B0F9000000EE100ADE
:10280000B8EEC00ADFEDEC0A80EE201AEB4880ED4E
:10281000001AE748B0F9020000EE100AB8EEC00A4C
:10282000DFEDE50A80EE201AE54880ED001AE04869
:10283000B0F9040000EE100AB8EEC00ADFEDDE0ABF
:1028400080EE201ADF4880ED001ADF48B0F9000062
:1028500001EE100AB8EEC11AF0EE410AD548B0F9FF
:10286000000001EE100AB8EEC11AB0EE410AD748D6
:1028700090ED001A07F00AF9BDEEC00A10EE100A3A
:1028800000B2CC490880D048B0F9020001EE100A2D
:10289000B8EEC11AF0EE410A0846B0F9020001EEA6
:1028A000100AB8EEC11AB0EE410AC84890ED001AFD
:1028B00007F0ECF8BDEEC00A10EE100A00B2BD49F8
:1028C0004880C148B0F9040001EE100AB8EEC11A00
:1028D000F0EE410A0846B0F9040001EE100AB8EE25
:1028E000C11AB0EE410A00E05EE1B84890ED001A6E
:1028F00007F0CCF8BDEEC00A10EE100A00B2AD49E8
:102900008880AB48B0F9000000EE100AB8EEC00AAB
:10291000DFEDA90A80EE201AF0EE419AAC4890ED66
:10292000001AF0EE690AA54890ED000A07F0AEF82B
:10293000A24880ED000A9E48B0F9020000EE100A9D
:10294000B8EEC00ADFED9C0A80EE201AF0EE419A44
:102950009F4890ED001AF0EE690A994890ED000A40
:1029600007F094F8964880ED000A9148B0F9040009
:1029700000EE100AB8EEC00ADFED8F0A80EE201AD2
:10298000F0EE419A924890ED001AF0EE690A8D48F7
:1029900090ED000A07F07AF88A4880ED000A854831
:1029A0000088894908808348408848808148808819
:1029B00088800846B0F9040001EE100AB8EEC11A8A
:1029C000F0EE410A0846B0F9000001EE100AB8EE38
:1029D000C11AB0EE410A05F091F9DFED7E0A20EE52
:1029E000200A7D4880ED000A7C48007858B100201C
:1029F0007A490870784890ED000A794880ED000A1D
:102A0000BDEC068B10BD764890ED000A6C48D0ED09
:102A1000000A9FED741A00EE810A714880ED000AE9
:102A200090ED000ADFED700A20EE200A6A48D0ED32
:102A3000000A9FED6E1A01EE200A694880ED000A37
:102A40005F4890ED000AB1EE401ADFED690A644874
:102A500090ED000A674807F03EFDB0EE408A6648F8
:102A60000078401CC0B26449087000EE100AB8EE4D
:102A7000400AF2EE040AB4EEE00AF1EE10FA40DB8E
:102A8000002008705D4890ED000AF7EE000A20EE85
:102A9000200A5B48D0ED000ABFEE001A00EE810A62
:102AA000F0EE000A80EE201AF0EE419A5548D0ED83
:102AB000000AB0EE690A544807F024FD534880ED3F
:102AC000000A4E4890ED000AF7EE000A20EE200AB8
:102AD0004B48D0ED000ABFEE001A00EEC10AF0EE3E
:102AE000000A80EE201AB0EE41AA4948D0ED000A53
:102AF000B0EE4A0A474807F03FFD474880ED000A1C
:102B000000BF424890ED000A38EE400A4248D0ED3E
:102B1000000A70EE208A3D4890ED000A38EE400A27
:102B20003D48D0ED000A30EE609A2D4890ED000A45
:102B3000DFED3A0AB4EEE00AF1EE10FA08DC90EDAF
:102B4000000ADFED370AB4EEE00AF1EE10FA1AD20D
:102B50009FED341ADFED330A9FED320A254807F066
:102B6000C9FC9FED301ADFED2F0A9FED2E0A264893
:102B700007F0C0FC9FED2B0A08F070F89FED290AC2
:102B800008F072F80FE0F7EE000A68EEA00AB0EE67
:102B9000600A08F063F8FFEE000A69EE200AB0EE62
:102BA000600A08F061F800BF00BF29E79408002020
:102BB000F0080020E4080020333303432C000020F9
:102BC0003000002034000020CC0800204C00002001
:102BD00050000020E62E65423800002054000020FE
:102BE0003C0000200AD7A33B6666663FCDCCCC3DB7
:102BF000CDCC4C408C0900205500002070000020F6
:102C0000900000204000002098090020580000207B
:102C100044000020A40900205C0000200000344291
:102C2000000034C20000000010B5044604480068EB
:102C3000204020B1024804602046FFF7CFFD10BDC0
:102C40001404014078B503460022D2E001269640E4
:102C50000D6805EA0604002C7BD00D7905F003050C
:102C6000012D04D00D7905F00305022D13D19868CC
:102C700056000325B540A8435600CD68B54028430B
:102C80009860586801259540A8430D79C5F3001553
:102C90009540284358600D7905F00305032D07D1B1
:102CA0000D7905F00305032D0CD18D68012D09D098
:102CB000D86856000325B540A84356008D68B54036
:102CC0002843D8600D7905F00305022D13D1D608ED
:102CD00003F1200555F826005507EE0E0F25B540E7
:102CE000A8435607F60E0D69B5402843D60803F1F0
:102CF000200545F82600186856000325B540A8436E
:102D00000D7905F003055600B540284318604D685D
:102D100005F44035002D6BD000BF394D2D6E45F0C8
:102D20000105374E356635462D6E05F001050095D7
:102D300000BF00BF4FEAB635960855F82600950744
:102D40002E0F0F25B540A843B3F1904F02D10025B7
:102D50001AE04DE02B4DAB4201D1012514E02A4D84
:102D6000AB4201D102250FE0284DAB4201D1032532
:102D70000AE0274DAB4201D1042505E0254DAB42C9
:102D800001D1052500E006259607360FB5402843FA
:102D9000214D960845F82600204D2868A0434D682F
:102DA00005F4801505B120431C4D28602D1D2868B1
:102DB000A0434D6805F4001505B12043174D2D1DA6
:102DC0002860164D2D1F2868A0434D6805F4003576
:102DD00005B12043114D2D1F28602D1F2868A043E9
:102DE0004D6805F4803505B120430C4D083D286041
:102DF000521C0D68D540002D7FF428AF78BD00002F
:102E0000001002400004004800080048000C004880
:102E10000010004800140048080001400804014068
:102E2000024613690B400BB1012000E000207047FF
:102E30000AB1816100E081627047000001480068CA
:102E40007047000004000020024692F8410020284C
:102E50002DD100BF92F84000012801D10220704717
:102E6000012082F8400000BF242082F84100106851
:102E7000006820F00100136818601068006820F4F2
:102E80008050136818601068006808431368186061
:102E90001068006840F0010013681860202082F874
:102EA000410000BF002082F8400000BFD7E70220A9
:102EB000D5E710B502460B4692F8410020282AD1EA
:102EC00000BF92F84000012801D1022010BD01206E
:102ED00082F8400000BF242082F84100106800689A
:102EE00020F00100146820601068016821F470610E
:102EF00041EA0321106801601068006840F0010099
:102F000014682060202082F8410000BF002082F871
:102F1000400000BFDAE70220D8E7000008B500BF94
:102F20000949096E41F00101074A11661146096E0F
:102F300001F00101009100BF00BF0449496801434D
:102F4000024A516008BD000000100240000001402C
:102F500010B504460CB9012010BD94F8410028B901
:102F6000002084F84000204600F0DCF9242084F89A
:102F700041002068006820F0010021680860606856
:102F800020F07060216808612068806820F40040AB
:102F900021688860E068012805D1A06840F40040FD
:102FA0002168886004E0A06840F4044021688860DB
:102FB000E068022806D12068406840F4006021687B
:102FC000486005E02068406820F40060216848609F
:102FD0002068406813490843216848602068C06839
:102FE00020F400402168C860D4E904010843A169C5
:102FF00040EA01202168C860D4E90701084321683C
:1030000008602068006840F0010021680860002026
:103010006064202084F841000020206384F842008E
:1030200000BF99E7008000022DE9FC4704460F46E7
:1030300090461E460020019094F84100202870D14F
:1030400020688069C0F3C03010B10220BDE8FC8761
:1030500000BF94F84000012801D10220F6E70120CA
:1030600084F8400000BF242084F841000020606400
:1030700000BFE068012806D1C7F3090040F4005002
:1030800040F0007005E0C7F3090040F4205040F024
:10309000007021684860FFF7D1FE0546206880690E
:1030A000C0F3401920688069C0F3001A1DE0701C4D
:1030B00098B1FFF7C3FE401BB04200D86EB9202084
:1030C00084F84100606C40F02000606400BF002084
:1030D00084F8400000BF0120B8E720688069C0F391
:1030E000401920688069C0F3001AB9F1000F02D1BD
:1030F000BAF1000FDBD020688069C0F30010E0B99E
:103100003346002220212046009502F021FD48B1DF
:10311000606C04281FD120202168C86100206064F1
:1031200019E02CE020202168C86184F8410000BF2C
:10313000002084F8400000BF88E710202168C861A3
:103140003346002220212046009502F001FD10B9EF
:1031500020202168C8610198401C019001984045D9
:1031600087D3202084F84100606C40F02000606428
:1031700000BF002084F8400000BF012066E7022065
:1031800064E700002DE9FC5F0446894692469B46B1
:10319000DDE90C780E9E94F8410020287ED117B10D
:1031A000B8F1000F05D14FF4007060640120BDE854
:1031B000FC9F00BF94F84000012801D10220F6E7EF
:1031C000012084F8400000BFFFF738FE05461923B0
:1031D0000122D1032046009502F0BAFC08B101207B
:1031E000E5E7222084F84100402084F842000020D6
:1031F00060646762A4F82A8060635B465246494671
:103200002046CDE9006502F049FC30B100BF002046
:1032100084F8400000BF0120C9E7608DFF280CD969
:10322000FF2020853D48009094F828204FF08073BF
:103230004946204602F070FC0BE0608D208537483F
:10324000009094F828204FF000734946204602F081
:1032500063FC00BF3346002204212046009502F0A3
:1032600077FC08B10120A2E72068406A616A087013
:10327000606A401C6062208D401E2085608D401E6B
:103280006085608D48B3208D38BB33460022802195
:103290002046009502F05CFC18B100E03CE0012003
:1032A00085E7608DFF280CD9FF2020850020009045
:1032B00094F828204FF080734946204602F02CFCF9
:1032C0000BE0608D20850020009094F828204FF0BE
:1032D00000734946204602F01FFC608D0028B9D1DA
:1032E0002A463146204602F074FC08B101205EE710
:1032F00020202168C8612068406809490840216889
:103300004860202084F84100002084F8420000BF7B
:1033100084F8400000BF4AE7022048E7002400800C
:1033200000E800FE10B59CB00446142117A8FCF775
:10333000BBFF542102A8FCF7B7FF5349206888421D
:103340004ED1402002900020099002A800F00AFA15
:1033500008B1FDF71BFC00BF4C48C06C40F00100F9
:103360004A49C8640846C06C00F00100019000BFE3
:1033700000BF00BF0846C06C40F00200C8640846A9
:10338000C06C00F00200019000BF00BF4FF400408D
:10339000179012201890002019901A9004201B906A
:1033A00017A94FF09040FFF74DFC80201790122096
:1033B0001890002019901A9004201B9017A93448E7
:1033C000FFF740FC00BF3148806D40F400102F49EA
:1033D00088650846806D00F40010019000BF51E040
:1033E0002C49206888424DD18015029000200B9016
:1033F00002A800F0B7F908B1FDF7C8FB00BF2348E9
:10340000C06C40F001002149C8640846C06C00F05F
:103410000100019000BF00BF00BF0846C06C40F033
:103420000200C8640846C06C00F00200019000BFB2
:1034300000BF8815179012201890002019901A903C
:1034400002201B9017A94FF09040FFF7FBFB2020B4
:10345000179012201890002019901A9008201B90A5
:1034600017A90B48FFF7EEFB00BF0848806D40F03E
:103470008040064988650846806D00F080400190D4
:1034800000BF00BF1CB010BD00540040001002403F
:1034900000040048007800400348006803490968B8
:1034A0000844014908607047040000200C00002017
:1034B00010B50024032000F0ABF80F2000F008F84E
:1034C00008B1012401E000F02FF8204610BD0000F3
:1034D00070B50446002511480068D8B10F4800684F
:1034E0004FF47A71B1FBF0F00D490968B1FBF0F6C9
:1034F000304601F0E7FA58B9102C07D200222146D5
:10350000501E00F047F80748046004E0012502E07F
:10351000012500E00125284670BD00000C000020B8
:10352000100000200800002008B500BF0E48006E03
:1035300040F001000C4908660846006E00F00100EA
:10354000009000BF00BF00BF0846806D40F0805073
:1035500088650846806D00F08050009000BF00BF75
:1035600000F0F6F808BD00000010024001460846D1
:1035700000280DDB00BF00BF00F01F0301229A40AE
:1035800043099B0003F1E023C3F8002100BF00BF03
:1035900000BF70472DE9F05F80460D46164604F0E7
:1035A00091FB074639462A46334601F00700C0F131
:1035B000070ABAF1040F02D94FF0040A01E0C0F182
:1035C000070AD14600F1040ABAF1070F02D24FF000
:1035D000000A01E0A0F1030AD4464FF0010A0AFAFA
:1035E00009FAAAF1010A0AEA020A0AFA0CFA4FF0E9
:1035F000010B0BFA0CFBABF1010B0BEA030B4AEAD4
:103600000B042146404604F065FBBDE8F09F000036
:1036100000BF00F00702064B19684FF6FF03194080
:10362000044B0B4343EA0221014B196000BF704772
:103630000CED00E00000FA0502468ABB4148006834
:1036400000F4C060B0F5806F2BD13E488030006838
:1036500020F480703B4BC3F880001846006820F4CB
:10366000C06040F400701860374800683223584347
:10367000364BB0FBF3F0411C00E0491E3148406975
:1036800000F48060B0F5806F01D10029F5D12D489C
:10369000406900F48060B0F5806F51D1032070471D
:1036A00008E028488030006820F48070254BC3F87B
:1036B000800045E0B2F5007F3AD12248006800F46E
:1036C000C060B0F5806F2AD11E488030006840F499
:1036D00080701C4BC3F880001846006820F4C0605E
:1036E00040F4007018601848006832235843174BA4
:1036F000B0FBF3F0411C00E0491E1248406900F4A1
:103700008060B0F5806F01D10029F5D10D48406986
:1037100000F48060B0F5806F12D10320BFE7094844
:103720008030006840F48070064BC3F8800007E0EA
:103730000448006820F4C06040F48060014B1860C9
:103740000020ACE7007000401000002040420F0055
:103750000348806840F48040014988607047000059
:10376000007000402DE9F84304460027B846206861
:1037700000F40020B0F5002F73D1B946FD48806DEC
:1037800000F0805078B900BFFA48806D40F080505A
:10379000F84988650846806D00F08050009000BFB1
:1037A00000BF4FF00109F448006840F48070F2490E
:1037B0000860FFF743FB064606E0FFF73FFB801B70
:1037C000022801D9032705E0EB48006800F4807067
:1037D0000028F2D000BF002F46D1E64890300068A4
:1037E00000F44075CDB1206DA84216D0E14890306C
:1037F000006820F44075DF48D0F8900040F4803035
:10380000DC49C1F890000846D0F8900020F48030E0
:10381000C1F890000846C0F8905005F00100A0B132
:10382000FFF70CFB064608E0FFF708FB801B41F2A0
:103830008831884201D9032706E0CE4890300068DD
:1038400000F002000028EFD000BF5FB9C9489030F7
:10385000006820F44070216D0843C649C1F890000B
:1038600003E00CE0B84600E0B846B9F1010F05D11D
:10387000C048806D20F08050BE49886500BF207828
:1038800000F0010048B1BB488830006820F0030018
:1038900061680843B749C1F88800207800F0020049
:1038A000022809D1B3488830006820F00C00A168D4
:1038B0000843B049C1F88800207800F004000428CB
:1038C00009D1AC488830006820F03000E168084336
:1038D000A849C1F88800207800F00800082809D11C
:1038E000A4488830006820F0C00021690843A1493D
:1038F000C1F88800207800F01000102809D19D48F8
:103900008830006820F44070616908439949C1F823
:103910008800207800F02000202809D195488830C0
:10392000006820F44060A16908439249C1F888000A
:10393000207800F04000402809D18E488830006887
:1039400020F44050E16908438A49C1F88800207892
:1039500000F08000802809D186488830006820F473
:103960004040216A08438349C1F88800208800F458
:103970008070B0F5807F09D17E488830006820F4DF
:103980004030616A08437B49C1F88800206800F430
:103990000030B0F5003F09D176489C30006820F037
:1039A0000300A16A08437349C1F89C00208800F411
:1039B0000070B0F5007F09D16E488830006820F4AF
:1039C0004020E16A08436B49C1F88800208800F470
:1039D0008060B0F5806F13D166488830006820F4AD
:1039E0004010216B0843634988310860206BB0F5B3
:1039F000801F05D15F48C06840F480105D49C860F1
:103A0000208800F40060B0F5006F13D15948883069
:103A1000006820F44000616B084356498831086013
:103A2000606BB0F5800F05D15248C06840F480103B
:103A30005049C860208800F48050B0F5805F13D1F1
:103A40004C488830006820F04070A16B0843494919
:103A500088310860A06BB0F1807F05D14548C0680F
:103A600040F480104349C860208800F40050B0F54D
:103A7000005F13D13F488830006820F04060E16B60
:103A800008433C4988310860E06BB0F1006F05D114
:103A90003848C06840F480103649C860208800F477
:103AA0008040B0F5804F13D132488830006820F054
:103AB0004060216C08432F4988310860206CB0F1C8
:103AC000006F05D12B48C06840F480102949C860B8
:103AD000208800F40040B0F5004F13D1254888300D
:103AE000006820F04050616C08432249883108602A
:103AF000606CB0F1805F05D11E48C06840F4803032
:103B00001C49C860206800F48030B0F5803F13D1B4
:103B100018488830006820F04040A16C08431549DF
:103B200088310860A06CB0F1804F05D11148C068A1
:103B300040F480300F49C860206800F48020B0F560
:103B4000802F13D10B489C30006820F44010E16CAA
:103B5000084308499C310860E06CB0F5001F05D1AE
:103B60000448C06840F480100249C8604046BDE87F
:103B7000F883000000100240007000402DE9F04181
:103B800004460D464FF0000814B90120BDE8F0814D
:103B90007D48006800F00F00A8420ED27A48006805
:103BA00020F00F002843784908600846006800F0BC
:103BB0000F00A84201D00120E8E7207800F00100C2
:103BC000002864D06068032823D17048006800F0A2
:103BD000007008B90120D9E703F016F806466C48D2
:103BE000864237D96948806800F0F00030B120780B
:103BF00000F0020002282DD1A06858BB63488068FD
:103C000020F0F00040F08000604988604FF08008AC
:103C100020E06068022806D15C48006800F40030AB
:103C200040B90120B2E75948006800F4806008B943
:103C30000120ABE700F0DEF806465548864209D978
:103C40005248806820F0F00040F080004F498860C2
:103C50004FF080084D48806820F0030061680843F9
:103C60004A498860FFF7EAF8074608E0FFF7E6F8F8
:103C7000C01B41F28831884201D9032086E74348BE
:103C8000806800F00C006168B0EB810FEED1207805
:103C900000F00200022820D1207800F0040004285F
:103CA00005D13A48806840F4E0603849886020785F
:103CB00000F00800082807D13448806820F46050DC
:103CC00040F4E060314988603048806820F0F000BE
:103CD000A16808432D49886008E0B8F1800F05D13C
:103CE0002A48806820F0F00028498860264800684B
:103CF00000F00F00A84219D92348006820F00F00F7
:103D0000284321490860FFF799F8074608E0FFF7C4
:103D100095F8C01B41F28831884201D9032035E76C
:103D20001948006800F00F00A842F0D1207800F098
:103D30000400042807D11548806820F4E060E16899
:103D4000084312498860207800F00800082808D14C
:103D50000E48806820F46050216940EAC1000B4998
:103D6000886000F047F809498968C1F30311094ADE
:103D7000515C01F01F01C84007490860074800680E
:103D8000FFF7A6FB02E700000020024000100240FF
:103D900000B4C40420B20008100000200800002075
:103DA00001480068704700001000002000B5FFF7D0
:103DB000F7FF05498968C1F30221044A515C01F00B
:103DC0001F01C84000BD00000010024030B20008D2
:103DD00000B5FFF7E5FF05498968C1F3C221044A30
:103DE000515C01F01F01C84000BD000000100240FE
:103DF00030B2000870B5224DAD6805F00C05042DF9
:103E000001D120483AE01E4DAD6805F00C05082DA3
:103E100001D11D4832E01A4DAD6805F00C050C2D9E
:103E20002BD1174DED6805F00304154DED68C5F372
:103E300003156A1C022C0CD0032C09D1124DB5FBC2
:103E4000F2F50F4EF668C6F3062605FB06F10AE00A
:103E500000BF0C4DB5FBF2F5094EF668C6F3062619
:103E600005FB06F100BF00BF054DED68C5F34165D8
:103E70006D1C6B00B1FBF3F000E0002070BD000092
:103E8000001002400024F40000127A002DE9F843EB
:103E9000044614B90120BDE8F883207800F0010041
:103EA000002865D0FC48806800F00C07FA48C0681C
:103EB00000F003060C2F01D1032E01D0082F0AD1E8
:103EC000F548006800F40030002851D060680028F0
:103ED0004ED10120DFE700BF6068B0F5803F06D11A
:103EE000ED48006840F48030EB4908601AE06068F3
:103EF000B0F5A02F0BD1E848006840F48020E649D7
:103F000008600846006840F4803008600AE0E24833
:103F1000006820F48030E04908600846006820F41A
:103F20008020086000BF606888B1FEF787FF054603
:103F300006E0FEF783FF401B642801D90320AAE7AF
:103F4000D548006800F400300028F2D010E0FEF7F9
:103F500075FF054606E0FEF771FF401B642801D996
:103F6000032098E7CC48006800F400300028F2D124
:103F7000207800F00200022860D1C748806800F075
:103F80000C07C548C06800F003060C2F01D1022EB3
:103F900001D0042F18D1C048006800F4806018B127
:103FA000E06808B9012076E7BB48406820F0FE4091
:103FB000217C40EA0160B8494860B8480068FFF7D2
:103FC00087FA18B3012066E7E06800B3B2480068DA
:103FD00040F48070B0490860FEF730FF054606E007
:103FE000FEF72CFF401B022801D9032053E7AA4803
:103FF000006800F480600028F2D0A748406820F0F4
:10400000FE40217C40EA0160A349486016E0A248D6
:10401000006820F48070A0490860FEF70FFF054695
:1040200006E0FEF70BFF401B022801D9032032E710
:104030009948006800F480600028F2D1207800F0F0
:104040000800082836D16069D0B1934894300068E0
:1040500040F001009049C1F89400FEF7EFFE0546DC
:1040600006E0FEF7EBFE401B022801D9032012E711
:1040700089489430006800F002000028F1D019E06F
:1040800085489430006820F001008349C1F894000D
:10409000FEF7D4FE054606E0FEF7D0FE401B0228E0
:1040A00001D90320F7E67C489430006800F0020054
:1040B0000028F1D1207800F00400042872D14FF0DC
:1040C00000087548806D012121EA107078B100BFA9
:1040D0007148806D40F080506F4988650846806D5A
:1040E00000F08050009000BF00BF4FF001086C4806
:1040F000006800F48070B0B96948006840F48070CE
:1041000067490860FEF79AFE054606E0FEF796FE50
:10411000401B022801D90320BDE66148006800F475
:1041200080700028F2D000BFA068012808D15A484A
:104130009030006840F001005749C1F8900021E03C
:10414000A06805280FD154489030006840F0040062
:104150005149C1F890000846D0F8900040F00100A5
:10416000C1F890000EE04C489030006820F001004B
:104170004949C1F890000846D0F8900020F00400AA
:10418000C1F8900000BFA068A8B1FEF757FE054631
:1041900009E0FEF753FE401B41F28831884202D904
:1041A000032078E625E03C489030006800F00200EB
:1041B0000028EED013E0FEF741FE054608E0FEF7CA
:1041C0003DFE401B41F28831884201D9032062E65E
:1041D00031489030006800F002000028EFD1B8F1BB
:1041E000010F05D12C48806D20F080502A49886548
:1041F00000BF207800F02000202836D1A069D0B17F
:1042000025489830006840F001002349C1F8980023
:10421000FEF714FE054606E0FEF710FE401B0228DE
:1042200001D9032037E61C489830006800F00200EE
:104230000028F1D019E018489830006820F00100FB
:104240001549C1F89800FEF7F9FD054606E0FEF7AE
:10425000F5FD401B022801D903201CE60E489830CA
:10426000006800F002000028F1D1E069002860D069
:104270000948806800F00C000C287AD0E069022818
:1042800058D10548006820F0807003490860FEF7A7
:10429000D5FD05460DE0000000100240080000209A
:1042A00000700040FEF7CAFD401B022801D9032020
:1042B000F1E54A48006800F000700028F2D1D4E926
:1042C0000810401E41EA0011A06A41EA0021208E38
:1042D0000122C2EB500041EA40513420005DC2EBA4
:1042E000500041EA40612C20005D41EAC0603B493A
:1042F000C9683B4A114008433849C860084600680D
:1043000040F0807008600846C06840F08070C86067
:10431000FEF794FD054606E0FEF790FD401B0228DF
:1043200001D90320B7E52D48006800F0007000288F
:10433000F2D051E02948006820F0807027490860D9
:10434000FEF77CFD054606E0FEF778FD401B0228DF
:1043500001D903209FE52148006800F00070002883
:10436000F2D11E48C0681F4908401C49C86033E0AC
:10437000FFE7E069012800D18DE51848C66806F01E
:104380000301206A814225D106F0F001606A401ED7
:10439000B1EB001F1ED106F4FE41A06AB1EB002F65
:1043A00018D106F078412C20005DB1EBC06F11D11F
:1043B00006F4C001208E0122C2EB5000B1EB405F39
:1043C00008D106F0C0613420005DC2EB5000B1EBB3
:1043D000406F01D001205EE500205CE50010024046
:1043E0000C809F01FCFFEEFE70B504460CB9012065
:1043F00070BD606A38B96068B0F5827F00D105E0B1
:104400000021E16102E00021216161610021A162DE
:1044100094F85D0028B9002084F85C00204600F084
:1044200061F8022084F85D002068006820F04000F8
:1044300021680860E068B0F5E06F01D9002501E06F
:104440004FF48055E068B0F5706F05D0E068B0F5C6
:10445000E06F01D00021A162A08800F48270218960
:1044600001F404410843217C01F002010843217D4D
:1044700001F001010843218B01F400710843217F01
:1044800001F0380108432021095D01F08001084353
:10449000218D01F400510843216808600421A069BE
:1044A00001EA104094F8241001F01001084394F838
:1044B000341001F008010843A18901F47061084338
:1044C00005F480510843216848602068C06920F4E1
:1044D00000602168C86100202066012084F85D002A
:1044E000002085E710B586B00446142101A8FBF72B
:1044F000DBFE3B492068884243D100BF3948006E4B
:1045000040F48050374908660846006E00F4805039
:10451000009000BF00BF00BF0846C06C40F0010023
:10452000C8640846C06C00F00100009000BF00BFE6
:1045300000BF0846C06C40F00200C8640846C06C6A
:1045400000F00200009000BF00BFC02001900220D8
:1045500002900020039004900520059001A94FF0DF
:104560009040FEF76FFB082001900220029000208F
:10457000039004900520059001A91B48FEF762FBFB
:104580002CE01A492068884228D100BF1548806D68
:1045900040F48040134988650846806D00F48040EF
:1045A000009000BF00BF00BF0846C06C40F0020092
:1045B000C8640846C06C00F00200009000BF00BF55
:1045C0004FF460400190022002900020039004907C
:1045D0000520059001A90448FEF734FB06B010BD84
:1045E0000030014000100240000400480038004044
:1045F0002DE9F84304460F4616461D46FEF71EFCFD
:104600008046B14694F85D00012802D00220BDE842
:10461000F88307B10EB90120F9E700BF94F85C00F8
:10462000012801D10220F2E7012084F85C0000BFDC
:10463000032084F85D0000202066A763A687E68734
:104640002064A4F84400A4F846002065E064A06853
:10465000B0F5004F0BD12068006820F040002168C1
:1046600008602068006840F4804021680860206885
:10467000006800F04000402805D02068006840F045
:10468000400021680860E068B0F5E06F37D96068E5
:1046900010B1B9F1010F09D1A06B00882168C86081
:1046A000A06B801CA063E08F401EE08723E02068A1
:1046B000806800F0020002280AD1A06B00882168FF
:1046C000C860A06B801CA063E08F401EE08712E0F2
:1046D000FEF7B4FBA0EB0800A84201D3681C00B9A8
:1046E0004DB9012084F85D0000BF002084F85C0013
:1046F00000BF03208BE7E08F0028D8D152E060682C
:1047000010B1B9F1010F17D1E08F01280AD9A06BC0
:1047100000882168C860A06B801CA063E08F801EA9
:10472000E08709E0A06B007821680873A06B401C4B
:10473000A063E08F401EE08731E02068806800F0D1
:104740000200022818D1E08F01280AD9A06B008846
:104750002168C860A06B801CA063E08F801EE0878A
:104760001DE0A06B007821680873A06B401CA0635B
:10477000E08F401EE08712E0FEF760FBA0EB080030
:10478000A84201D3681C00B94DB9012084F85D002E
:1047900000BF002084F85C0000BF032037E7E08FF3
:1047A0000028CAD142462946204602F061FA08B1E3
:1047B00020202066A06850B900BF0020009020682B
:1047C000C068009020688068009000BF00BF012092
:1047D00084F85D0000BF002084F85C0000BF206EFC
:1047E00008B1012013E7002011E72DE9FE4F044630
:1047F0000F4690461D460C9E01200090FEF71EFBC2
:10480000824694F85DB060680190A9460295BBF1BC
:10481000010F0BD00198B0F5827F04D1A06810B9C8
:10482000BBF1040F02D00220BDE8FE8F1FB1B8F12A
:10483000000F00D00DB90120F6E700BF94F85C002E
:10484000012801D10220EFE7012084F85C0000BFBD
:1048500094F85D00042802D0052084F85D00002053
:104860002066C4F84080A4F84650A4F84450A763DA
:10487000E587A587E0642065E068B0F5E06F02D8C1
:104880000298012806D92068406820F480502168E9
:10489000486005E02068406840F480502168486026
:1048A0002068006800F04000402805D020680068BB
:1048B00040F0400021680860E068B0F5E06F56D92C
:1048C000606810B1B9F1010F09D1A06B00882168AF
:1048D000C860A06B801CA063E08F401EE0873EE0B4
:1048E0002068806800F00200022810D1E08F70B1CB
:1048F000009801280BD1A06B00882168C860A06BCC
:10490000801CA063E08F401EE0870020009020689C
:10491000806800F0010080B1B4F8460068B12068FA
:10492000C068216C0880206C801C2064B4F84600AC
:10493000401EA4F8460001200090FEF77FFAA0EB8D
:104940000A00B0420BD3701C48B1012084F85D000E
:1049500000BF002084F85C0000BF032064E7E08F04
:104960000028BDD1B4F846000028B9D18DE06068B8
:1049700010B1B9F1010F17D1E08F01280AD9A06B4E
:1049800000882168C860A06B801CA063E08F801E37
:10499000E08709E0A06B007821680873A06B401CD9
:1049A000A063E08F401EE08768E02068806800F028
:1049B000020002281ED1E08FE0B10098012819D131
:1049C000E08F01280AD9A06B00882168C860A06B1D
:1049D000801CA063E08F801EE08709E0A06B007858
:1049E00021680873A06B401CA063E08F401EE08725
:1049F000002000902068806800F0010058B3B4F8EF
:104A0000460040B3B4F84600012816D92068C068B3
:104A1000216C0880206C801C2064B4F84600801E45
:104A2000A4F84600B4F84600012812D8206840686F
:104A300040F48050216848600BE02068007B216CC6
:104A40000870206C401C2064B4F84600401EA4F896
:104A5000460001200090FEF7F1F9A0EB0A00B042F9
:104A600001D3701C00B94EB9012084F85D0000BF6D
:104A7000002084F85C0000BF0320D5E6E08F00280A
:104A800093D1B4F8460000288FD1524631462046D3
:104A900002F0EEF840B12020206600BF002084F82C
:104AA0005C0000BF0120BFE6012084F85D0000BF6C
:104AB000002084F85C0000BF206E08B10120B3E63E
:104AC0000020B1E670B504462546681EB0F1807F2F
:104AD00001D301200FE0681E4FF0E02148610F2153
:104AE0004FF0FF3003F0F6F800204FF0E02188612E
:104AF00007200861002070BD7047704770470000B4
:104B000010B50346002200BF93F83C00012801D1F4
:104B1000022010BD012083F83C0000BF22F0FF00FE
:104B2000CC6840EA040222F440708C6840EA040237
:104B300022F480604C6840EA040222F400600C68B1
:104B400040EA040222F480500C6940EA040222F494
:104B500000504C6940EA040222F480400C6B40EAA9
:104B6000040222F470200C8B40EA044222F08050B0
:104B7000CC6940EA0402144C1868A04207D0134CD8
:104B80001868A04203D0124C1868A04213D122F436
:104B900070000C8D40EA045222F080700C6A40EAEA
:104BA000040222F000704C6A40EA040222F0005035
:104BB000CC6A40EA04021868426400BF002083F80F
:104BC0003C0000BF00BFA4E7002C014000340140BE
:104BD00000500140704770477047000030B50246F2
:104BE0000B4600BF92F83C00012801D1022030BDE5
:104BF000012082F83C0000BF022082F83D001068CE
:104C0000416810688468234D1068A84207D0224D7F
:104C10001068A84203D0214D1068A84203D121F4A6
:104C20007001586801431E4801401868014310682C
:104C30004160184D1068A8421BD01068B0F1804F39
:104C400017D0184D1068A84213D0174D1068A8420D
:104C50000FD0164D1068A8420BD00F4D1068A84217
:104C600007D0134D1068A84203D00C4D1068A8421D
:104C700005D124F080049868044310688460012002
:104C800082F83D0000BF002082F83C0000BF00BF5A
:104C9000ADE70000002C014000340140005001400D
:104CA0008FFFFFFD0004004000080040000C0040A2
:104CB00000400140704710B504460CB9012010BDFA
:104CC00094F83D0028B9002084F83C00204600F00C
:104CD00029F8022084F83D00211D206802F030F9F7
:104CE000012084F8480000BF84F83E0001213F20E5
:104CF00001554020015541200155422001554320D6
:104D0000015500BF00BF012084F844004520015533
:104D1000462001554720015500BF012084F83D0081
:104D20000020CCE738B504461F49206888420DD1E1
:104D300000BF1E48006E40F400601C49086608462B
:104D4000006E00F40060009000BF2CE02068B0F11D
:104D5000804F16D100BF1548806D40F00100134907
:104D600088650846806D00F00100009000BF00BF1C
:104D7000002211461C20FEF70DFC1C20FEF7F6FB5E
:104D800011E00B49206888420DD100BF0748006E32
:104D900040F40050054908660846006E00F40050D3
:104DA000009000BF00BF38BD002C01400010024041
:104DB00000340140014691F83D00012801D0012056
:104DC0007047022081F83D000868C06840F001008B
:104DD0000B68D8601C4B086898421BD00868B0F17B
:104DE000804F17D0194B0868984213D0184B0868A9
:104DF00098420FD0174B086898420BD0164B0868A2
:104E0000984207D0154B0868984203D0144B0868A5
:104E1000984210D108688068124B00EA0302062A03
:104E20000FD0B2F5803F0CD00868006840F0010058
:104E30000B68186005E00868006840F001000B6826
:104E400018600020BCE70000002C01400004004076
:104E500000080040000C00400034014000400140C8
:104E600000500140070001002DE9F04104460D46C5
:104E7000002700BF94F83C00012802D10220BDE8C1
:104E8000F081012084F83C0000BF022084F83D003E
:104E9000206886684248064026F47F46206886607F
:104EA0002868B0F5005F33D015DC402851D008DC0D
:104EB000002858D0102857D0202856D0302862D14A
:104EC00054E0502831D0602839D0702813D0B0F584
:104ED000805F58D10EE000F00F01002953D100117E
:104EE000A0F5803008284ED2DFE800F0414243446C
:104EF0004546474849E0D5E902136A68206802F050
:104F0000A4F82068866846F07706206886603CE052
:104F1000D5E902136A68206802F097F82068806873
:104F200040F48040216888602FE0EA686968206862
:104F300002F0ACFA5021206802F092F825E0EA680D
:104F40006968206802F0DEFA6021206802F088F8C3
:104F50001BE0EA686968206802F098FA402120683E
:104F600002F07EF811E000BF00BF00BF00BF00BF2D
:104F700000BF00BF00BF00BF00BF00BF296820689E
:104F800002F06EF801E0012700BF00BF012084F8A5
:104F90003D0000BF002084F83C0000BF38466EE7AB
:104FA00088FFCEFF704770B504462068C668206849
:104FB000056905F00200022819D106F00200022856
:104FC00015D1401F21680861012020772068806981
:104FD00000F0030018B12046FFF7E4FF05E020468B
:104FE00000F062F9204600F050FA0020207705F02A
:104FF0000400042819D106F00400042815D1C04388
:1050000021680861022020772068806900F44070E0
:1050100018B12046FFF7C6FF05E0204600F044F92E
:10502000204600F032FA0020207705F0080008281A
:1050300019D106F00800082815D1C043216808617D
:10504000042020772068C06900F0030018B12046D2
:10505000FFF7A8FF05E0204600F026F9204600F003
:1050600014FA0020207705F01000102819D106F05E
:105070001000102815D1C04321680861082020774E
:105080002068C06900F4407018B12046FFF78AFF1D
:1050900005E0204600F008F9204600F0F6F900206F
:1050A000207705F0010048B106F0010030B16FF043
:1050B000010021680861204600F09EFA05F080009A
:1050C000802804D005F40050B0F5005F0AD106F046
:1050D0008000802806D16FF40250216808612046C4
:1050E000FFF70BFD05F48070B0F5807F0AD106F064
:1050F0008000802806D16FF4807021680861204606
:10510000FFF7FAFC05F04000402809D106F0400006
:10511000402805D1C04321680861204600F006FB05
:1051200005F02000202809D106F02000202805D114
:10513000C043216808612046FFF7E0FC05F48010B9
:10514000B0F5801F0BD106F48010B0F5801F06D19A
:105150006FF48010216808612046FFF73CFD05F4DC
:105160000010B0F5001F0BD106F40010B0F5001FC1
:1051700006D16FF40010216808612046FFF72AFD70
:1051800005F48000B0F5800F0BD106F48000B0F577
:10519000800F06D16FF48000216808612046FFF778
:1051A0001BFD05F40000B0F5000F0BD106F4000064
:1051B000B0F5000F06D16FF40000216808612046A9
:1051C000FFF778FD70BD000010B586B004461421CD
:1051D00001A8FBF769F83049206888422CD100BF4C
:1051E0002E48C06C40F001002C49C8640846C06CD1
:1051F00000F00100009000BF00BF4FF4C0600190BC
:10520000022002900020039004900620059001A93E
:105210004FF09040FDF716FD4FF400600190022022
:1052200002900020039004900B20059001A94FF0FC
:105230009040FDF707FD2CE019492068884228D1ED
:1052400000BF1648C06C40F002001449C86408460C
:10525000C06C00F00200009000BF00BF4020019031
:10526000022002900020039004900520059001A9DF
:105270000C48FDF7E7FC4FF44070019002200290CB
:105280000020039004900A20059001A90548FDF72D
:10529000D9FC06B010BD0000002C014000100240F7
:1052A000003401400004004870472DE9F0410446F5
:1052B0000D461646002700BF94F83C00012802D195
:1052C0000220BDE8F081012084F83C0000BF0C2ED4
:1052D00051D005DC4EB1042E1ED0082E7AD133E019
:1052E000102E60D0142EF9D175E02946206801F007
:1052F000C3FE2068806940F008002168886120684A
:10530000806920F00400216888612068806929692B
:1053100008432168886178E02946206801F00CFF85
:105320002068806940F40060216888612068806995
:1053300020F480602168886120688069296940EADA
:1053400001202168886160E02946206801F05AFF49
:105350002068C06940F008002168C8612068C06901
:1053600020F004002168C8612068C06929690843E9
:105370002168C86149E02946206801F0A7FF20683C
:10538000C06940F400602168C8612068C06920F4E9
:1053900080602168C8612068C069296940EA0120ED
:1053A0002168C86131E02946206801F0F5FF2068D6
:1053B000006D40F00800216808652068006D20F04D
:1053C0000400216808652068006D29690843216888
:1053D00008651AE017E02946206802F019F82068ED
:1053E000006D40F40060216808652068006D20F4BD
:1053F0008060216808652068006D296940EA012005
:105400002168086501E0012700BF00BF00BF002040
:1054100084F83C0000BF384653E710B504460CB989
:10542000012010BD94F83D0028B9002084F83C000C
:10543000204600F029F8022084F83D00211D206854
:1054400001F07EFD012084F8480000BF84F83E0092
:1054500001213F20015540200155412001554220A6
:1054600001554320015500BF00BF012084F84400CE
:1054700045200155462001554720015500BF012018
:1054800084F83D000020CCE77047704770B50446B3
:105490000D4615B994F83E0015E0042D02D13F20C9
:1054A000005D10E0082D02D14020005D0BE00C2DC6
:1054B00002D14120005D06E0102D02D14220005DA6
:1054C00001E04320005D012801D0012070BD1DB91D
:1054D000022084F83E001AE0042D03D102213F206F
:1054E000015514E0082D03D10221402001550EE0A2
:1054F0000C2D03D102214120015508E0102D03D1CC
:1055000002214220015502E00221432001550122DF
:105510002946206801F088FD2D492068884213D073
:105520002C49206888420FD02B49206888420BD034
:105530002A492068884207D029492068884203D038
:1055400028492068884201D1012000E0002028B1CC
:105550002068406C40F40040216848641C49206881
:1055600088421BD02068B0F1804F17D01E492068B8
:10557000884213D01D49206888420FD01C492068FA
:1055800088420BD013492068884207D0124920680E
:10559000884203D013492068884210D1206880686F
:1055A000144900EA0106062E0FD0B6F5803F0CD054
:1055B0002068006840F001002168086005E020686C
:1055C000006840F001002168086000207EE70000CC
:1055D000002C0140003401400040014000440140E3
:1055E0000048014000500140000400400008004015
:1055F000000C00400700010010B52DED068B04469D
:105600002068B0F1804F75D13C4802F02DFE3B4838
:1056100090ED000A3A4880ED000A3A48007840B11F
:10562000002038490870354890ED000A364880ED72
:10563000000A3248D0ED000A334890ED001A70EEAF
:10564000C10AB0EE600ADFED310A03F0D7FDB0EE1B
:10565000408A2A4890ED000A2B4880ED000A9FED11
:105660002C0A68EE008A9FED2B9AB0EE491A2A4860
:10567000D0ED000AB0EE680A04F008FA264880ED82
:10568000000A1E4890ED010A244880ED000A2448D3
:10569000007840B1002022490870184890ED010AB6
:1056A000204880ED000A1548D0ED010A1D4890ED14
:1056B000001A70EEC10AB0EE600ADFED140A03F0C2
:1056C0009DFDF0EE409A0D4890ED010A154880EDE1
:1056D000000A9FED0F0A29EE80AAB0EE491A12487F
:1056E000D0ED000AB0EE4A0A04F0D0F90E4880ED81
:1056F000000A00BFBDEC068B10BD000014000020A6
:1057000078000020200000201C000020DB0FC94092
:1057100000007A44CDCCCC3D7000002098000020E1
:10572000280000202400002090000020704701463F
:1057300000BF91F88400012801D1022070470120A8
:1057400081F8840000BF2420C1F88800086802683E
:105750000868006820F001000B68186022F0005211
:1057600000204866086802602020C1F8880000BF59
:10577000002081F8840000BF00BFDFE770B5044659
:105780000D4600BF94F88400012801D1022070BDAD
:10579000012084F8840000BF2420C4F88800206819
:1057A00006682068006820F0010021680860206811
:1057B000806820F06060284321688860204601F0FE
:1057C000DDFE206806602020C4F8880000BF0020AD
:1057D00084F8840000BF00BFD9E770B504460D46C9
:1057E00000BF94F88400012801D1022070BD01207F
:1057F00084F8840000BF2420C4F88800206806686C
:105800002068006820F00100216808602068806836
:1058100020F06040284321688860204601F0AEFEF9
:10582000206806602020C4F8880000BF002084F8AB
:10583000840000BF00BFD9E710B504460CB90120B1
:1058400010BDA06900B100E000BFD4F8880028B9FD
:10585000002084F88400204600F02AF82420C4F8B0
:1058600088002068006820F0010021680860A06AB4
:1058700010B1204601F0AEFE204601F0D3FF012812
:1058800000D1DDE72068406820F49040216848603E
:105890002068806820F02A002168886020680068FD
:1058A00040F0010021680860204601F00FFFC7E7C3
:1058B00010B59CB00446142117A8FAF7F5FC542142
:1058C00002A8FAF7F1FC1C492068884232D1022074
:1058D00002900020049002A8FDF744FF08B1FBF7F6
:1058E00055F900BF1548806D40F4003013498865B4
:1058F0000846806D00F40030019000BF00BF00BF7B
:105900000846C06C40F00100C8640846C06C00F056
:105910000100019000BF00BF0C20179002201890DA
:10592000002019901A9007201B9017A94FF0904063
:10593000FDF788F91CB010BD004400400010024083
:1059400000BFFEE701688969C1F3400111B1002180
:10595000026891620168896901F0010129B9016851
:10596000896941F001010268916170472DE9F74FA3
:1059700004460E4600272068D0F818800025DDF880
:10598000089008F01000102845D12168C86134E063
:10599000701C90B3FDF752FAA0EB0900B04200D89A
:1059A0005EBB2068406800F4804A94F842B02068EA
:1059B0008069C0F3C03070B1BAF5804F0BD0BBF135
:1059C000200F08D02068406840F48040216848607B
:1059D000FDF734FA814609E0FDF730FAA0EB090043
:1059E000192803D945F02005012705E020688069C2
:1059F000C0F340100028EFD000BF20688069C0F3DA
:105A0000401008B9002FC3D017B920202168C86101
:105A100045F0040501272068D0F8188008F480704C
:105A2000B0F5807F06D145F001054FF48070216804
:105A3000C861012708F48060B0F5806F06D145F099
:105A400008054FF480602168C861012708F40070E0
:105A5000B0F5007F06D145F002054FF400702168D3
:105A6000C8610127AFB12046FFF76CFF206840688E
:105A70000949084021684860606C28436064202020
:105A800084F84100002084F8420000BF84F8400000
:105A900000BF3846BDE8FE8F00E800FE2DE9F84360
:105AA0000446894615461E46DDE908781948F2B2D3
:105AB000002349460090204600F02EF84246394621
:105AC000204600F0B6F810B10120BDE8F883012EA1
:105AD00003D1E8B2216888620EE0C5F3072021688F
